{
  "contractName": "SimpleAuction",
  "abi": [
    {
      "anonymous": false,
      "inputs": [
        {
          "indexed": false,
          "internalType": "uint256",
          "name": "nftid",
          "type": "uint256"
        },
        {
          "indexed": false,
          "internalType": "address",
          "name": "winner",
          "type": "address"
        },
        {
          "indexed": false,
          "internalType": "uint256",
          "name": "amount",
          "type": "uint256"
        }
      ],
      "name": "AuctionEnded",
      "type": "event"
    },
    {
      "anonymous": false,
      "inputs": [
        {
          "indexed": false,
          "internalType": "address",
          "name": "bidder",
          "type": "address"
        },
        {
          "indexed": false,
          "internalType": "uint256",
          "name": "amount",
          "type": "uint256"
        }
      ],
      "name": "HighestBidIncreased",
      "type": "event"
    },
    {
      "inputs": [
        {
          "internalType": "uint256",
          "name": "",
          "type": "uint256"
        }
      ],
      "name": "allNft",
      "outputs": [
        {
          "internalType": "uint256",
          "name": "id",
          "type": "uint256"
        },
        {
          "internalType": "string",
          "name": "data",
          "type": "string"
        },
        {
          "internalType": "address payable",
          "name": "nowHolder",
          "type": "address"
        },
        {
          "internalType": "enum SimpleAuction.State",
          "name": "nowState",
          "type": "uint8"
        },
        {
          "internalType": "uint256",
          "name": "numofHolder",
          "type": "uint256"
        }
      ],
      "stateMutability": "view",
      "type": "function",
      "constant": true
    },
    {
      "inputs": [
        {
          "internalType": "uint256",
          "name": "",
          "type": "uint256"
        }
      ],
      "name": "auctionEnd",
      "outputs": [
        {
          "internalType": "uint256",
          "name": "",
          "type": "uint256"
        }
      ],
      "stateMutability": "view",
      "type": "function",
      "constant": true
    },
    {
      "inputs": [
        {
          "internalType": "uint256",
          "name": "",
          "type": "uint256"
        }
      ],
      "name": "autioningNft",
      "outputs": [
        {
          "internalType": "uint256",
          "name": "id",
          "type": "uint256"
        },
        {
          "internalType": "string",
          "name": "data",
          "type": "string"
        },
        {
          "internalType": "address payable",
          "name": "nowHolder",
          "type": "address"
        },
        {
          "internalType": "enum SimpleAuction.State",
          "name": "nowState",
          "type": "uint8"
        },
        {
          "internalType": "uint256",
          "name": "numofHolder",
          "type": "uint256"
        }
      ],
      "stateMutability": "view",
      "type": "function",
      "constant": true
    },
    {
      "inputs": [
        {
          "internalType": "address",
          "name": "",
          "type": "address"
        }
      ],
      "name": "balances",
      "outputs": [
        {
          "internalType": "uint256",
          "name": "",
          "type": "uint256"
        }
      ],
      "stateMutability": "view",
      "type": "function",
      "constant": true
    },
    {
      "inputs": [
        {
          "internalType": "uint256",
          "name": "",
          "type": "uint256"
        }
      ],
      "name": "beneficiary",
      "outputs": [
        {
          "internalType": "address payable",
          "name": "",
          "type": "address"
        }
      ],
      "stateMutability": "view",
      "type": "function",
      "constant": true
    },
    {
      "inputs": [
        {
          "internalType": "uint256",
          "name": "",
          "type": "uint256"
        }
      ],
      "name": "ended",
      "outputs": [
        {
          "internalType": "bool",
          "name": "",
          "type": "bool"
        }
      ],
      "stateMutability": "view",
      "type": "function",
      "constant": true
    },
    {
      "inputs": [
        {
          "internalType": "uint256",
          "name": "",
          "type": "uint256"
        }
      ],
      "name": "highestBid",
      "outputs": [
        {
          "internalType": "uint256",
          "name": "",
          "type": "uint256"
        }
      ],
      "stateMutability": "view",
      "type": "function",
      "constant": true
    },
    {
      "inputs": [
        {
          "internalType": "uint256",
          "name": "",
          "type": "uint256"
        }
      ],
      "name": "highestBidder",
      "outputs": [
        {
          "internalType": "address",
          "name": "",
          "type": "address"
        }
      ],
      "stateMutability": "view",
      "type": "function",
      "constant": true
    },
    {
      "inputs": [
        {
          "internalType": "uint256",
          "name": "",
          "type": "uint256"
        }
      ],
      "name": "nowNft",
      "outputs": [
        {
          "internalType": "uint256",
          "name": "id",
          "type": "uint256"
        },
        {
          "internalType": "string",
          "name": "data",
          "type": "string"
        },
        {
          "internalType": "address payable",
          "name": "nowHolder",
          "type": "address"
        },
        {
          "internalType": "enum SimpleAuction.State",
          "name": "nowState",
          "type": "uint8"
        },
        {
          "internalType": "uint256",
          "name": "numofHolder",
          "type": "uint256"
        }
      ],
      "stateMutability": "view",
      "type": "function",
      "constant": true
    },
    {
      "inputs": [],
      "name": "nowTime",
      "outputs": [
        {
          "internalType": "uint256",
          "name": "",
          "type": "uint256"
        }
      ],
      "stateMutability": "view",
      "type": "function",
      "constant": true
    },
    {
      "inputs": [],
      "name": "numofNft",
      "outputs": [
        {
          "internalType": "uint256",
          "name": "",
          "type": "uint256"
        }
      ],
      "stateMutability": "view",
      "type": "function",
      "constant": true
    },
    {
      "inputs": [],
      "name": "numofSelfHold",
      "outputs": [
        {
          "internalType": "uint256",
          "name": "",
          "type": "uint256"
        }
      ],
      "stateMutability": "view",
      "type": "function",
      "constant": true
    },
    {
      "inputs": [],
      "name": "wallet",
      "outputs": [
        {
          "internalType": "address payable",
          "name": "",
          "type": "address"
        }
      ],
      "stateMutability": "view",
      "type": "function",
      "constant": true
    },
    {
      "inputs": [
        {
          "internalType": "string",
          "name": "_data",
          "type": "string"
        }
      ],
      "name": "mint",
      "outputs": [],
      "stateMutability": "payable",
      "type": "function",
      "payable": true
    },
    {
      "inputs": [],
      "name": "showTokens",
      "outputs": [],
      "stateMutability": "nonpayable",
      "type": "function"
    },
    {
      "inputs": [
        {
          "internalType": "uint256",
          "name": "auctionNumber",
          "type": "uint256"
        },
        {
          "internalType": "uint256",
          "name": "_biddingTime",
          "type": "uint256"
        }
      ],
      "name": "auctionBegin",
      "outputs": [],
      "stateMutability": "nonpayable",
      "type": "function"
    },
    {
      "inputs": [],
      "name": "showAuctions",
      "outputs": [],
      "stateMutability": "nonpayable",
      "type": "function"
    },
    {
      "inputs": [],
      "name": "getTime",
      "outputs": [],
      "stateMutability": "nonpayable",
      "type": "function"
    },
    {
      "inputs": [
        {
          "internalType": "uint256",
          "name": "bidnumber",
          "type": "uint256"
        }
      ],
      "name": "bid",
      "outputs": [],
      "stateMutability": "payable",
      "type": "function",
      "payable": true
    },
    {
      "inputs": [
        {
          "internalType": "uint256",
          "name": "_numofpendingReturns",
          "type": "uint256"
        }
      ],
      "name": "withdraw",
      "outputs": [
        {
          "internalType": "bool",
          "name": "",
          "type": "bool"
        }
      ],
      "stateMutability": "nonpayable",
      "type": "function"
    },
    {
      "inputs": [
        {
          "internalType": "uint256",
          "name": "_auctionTokenid",
          "type": "uint256"
        }
      ],
      "name": "auctionEndding",
      "outputs": [],
      "stateMutability": "nonpayable",
      "type": "function"
    }
  ],
  "bytecode": "0x60806040524260c955600060ca55600060cf5534801561001e57600080fd5b506122a48061002e6000396000f3fe60806040526004361061012a5760003560e01c80635daa3160116100ab57806394ea82cd1161006f57806394ea82cd14610425578063b14c63c51461043c578063b9f4b88f14610479578063d0c77ef4146104ba578063d85d3d27146104e5578063dbd30865146105015761012a565b80635daa3160146103185780636f175ec014610355578063861a36891461037e57806388cc3568146103bb5780638f30295f146103e45761012a565b8063335f1b37116100f2578063335f1b3714610252578063451df52e1461027d578063454a2ab3146102ba578063521eb273146102d6578063557ed1ba146103015761012a565b8063085feb091461012f5780631c2ae7941461015a57806327e235e31461019b5780632e1a7d4d146101d857806332246e9f14610215575b600080fd5b34801561013b57600080fd5b50610144610518565b6040516101519190611a03565b60405180910390f35b34801561016657600080fd5b50610181600480360381019061017c9190611a5e565b61051e565b604051610192959493929190611bdc565b60405180910390f35b3480156101a757600080fd5b506101c260048036038101906101bd9190611c74565b610609565b6040516101cf9190611a03565b60405180910390f35b3480156101e457600080fd5b506101ff60048036038101906101fa9190611a5e565b610621565b60405161020c9190611cbc565b60405180910390f35b34801561022157600080fd5b5061023c60048036038101906102379190611a5e565b610795565b6040516102499190611a03565b60405180910390f35b34801561025e57600080fd5b506102676107b0565b6040516102749190611a03565b60405180910390f35b34801561028957600080fd5b506102a4600480360381019061029f9190611a5e565b6107b6565b6040516102b19190611ce6565b60405180910390f35b6102d460048036038101906102cf9190611a5e565b6107ec565b005b3480156102e257600080fd5b506102eb610a26565b6040516102f89190611d01565b60405180910390f35b34801561030d57600080fd5b50610316610a4c565b005b34801561032457600080fd5b5061033f600480360381019061033a9190611a5e565b610a55565b60405161034c9190611d01565b60405180910390f35b34801561036157600080fd5b5061037c60048036038101906103779190611a5e565b610a8b565b005b34801561038a57600080fd5b506103a560048036038101906103a09190611a5e565b610ee4565b6040516103b29190611cbc565b60405180910390f35b3480156103c757600080fd5b506103e260048036038101906103dd9190611d1c565b610f0f565b005b3480156103f057600080fd5b5061040b60048036038101906104069190611a5e565b61106f565b60405161041c959493929190611bdc565b60405180910390f35b34801561043157600080fd5b5061043a61115a565b005b34801561044857600080fd5b50610463600480360381019061045e9190611a5e565b61131e565b6040516104709190611a03565b60405180910390f35b34801561048557600080fd5b506104a0600480360381019061049b9190611a5e565b61133a565b6040516104b1959493929190611bdc565b60405180910390f35b3480156104c657600080fd5b506104cf611425565b6040516104dc9190611a03565b60405180910390f35b6104ff60048036038101906104fa9190611e91565b61142b565b005b34801561050d57600080fd5b5061051661163b565b005b60cf5481565b60cd60205280600052604060002060009150905080600001549080600101805461054790611f09565b80601f016020809104026020016040519081016040528092919081815260200182805461057390611f09565b80156105c05780601f10610595576101008083540402835291602001916105c0565b820191906000526020600020905b8154815290600101906020018083116105a357829003601f168201915b5050505050908060020160009054906101000a900473ffffffffffffffffffffffffffffffffffffffff16908060020160149054906101000a900460ff16908060030154905085565b60ce6020528060005260406000206000915090505481565b6000816101fc8190555060006101986101fc546064811061064557610644611f3b565b5b0160003373ffffffffffffffffffffffffffffffffffffffff1673ffffffffffffffffffffffffffffffffffffffff168152602001908152602001600020549050600081111561078a5760006101986101fc54606481106106a9576106a8611f3b565b5b0160003373ffffffffffffffffffffffffffffffffffffffff1673ffffffffffffffffffffffffffffffffffffffff168152602001908152602001600020819055503373ffffffffffffffffffffffffffffffffffffffff166108fc829081150290604051600060405180830381858888f1935050505061078957806101986101fc546064811061073d5761073c611f3b565b5b0160003373ffffffffffffffffffffffffffffffffffffffff1673ffffffffffffffffffffffffffffffffffffffff168152602001908152602001600020819055506000915050610790565b5b60019150505b919050565b606581606481106107a557600080fd5b016000915090505481565b60c95481565b60d081606481106107c657600080fd5b016000915054906101000a900473ffffffffffffffffffffffffffffffffffffffff1681565b6107f461163b565b6065816064811061080857610807611f3b565b5b015442111561084c576040517f08c379a000000000000000000000000000000000000000000000000000000000815260040161084390611fb6565b60405180910390fd5b610134816064811061086157610860611f3b565b5b015434116108a4576040517f08c379a000000000000000000000000000000000000000000000000000000000815260040161089b90612022565b60405180910390fd5b600061013482606481106108bb576108ba611f3b565b5b01541461097b5761013481606481106108d7576108d6611f3b565b5b01546101986101fc54606481106108f1576108f0611f3b565b5b01600060d0846064811061090857610907611f3b565b5b0160009054906101000a900473ffffffffffffffffffffffffffffffffffffffff1673ffffffffffffffffffffffffffffffffffffffff1673ffffffffffffffffffffffffffffffffffffffff16815260200190815260200160002060008282546109739190612071565b925050819055505b3360d082606481106109905761098f611f3b565b5b0160006101000a81548173ffffffffffffffffffffffffffffffffffffffff021916908373ffffffffffffffffffffffffffffffffffffffff1602179055503461013482606481106109e5576109e4611f3b565b5b01819055507ff4757a49b326036464bec6fe419a4ae38c8a02ce3e68bf0809674f6aab8ad3003334604051610a1b9291906120c7565b60405180910390a150565b606460009054906101000a900473ffffffffffffffffffffffffffffffffffffffff1681565b4260c981905550565b60008160648110610a6557600080fd5b016000915054906101000a900473ffffffffffffffffffffffffffffffffffffffff1681565b600081905060658160648110610aa457610aa3611f3b565b5b0154421015610ae8576040517f08c379a0000000000000000000000000000000000000000000000000000000008152600401610adf9061213c565b60405180910390fd5b6101fd8160648110610afd57610afc611f3b565b5b602091828204019190069054906101000a900460ff1615610b53576040517f08c379a0000000000000000000000000000000000000000000000000000000008152600401610b4a906121ce565b60405180910390fd5b60016101fd8260648110610b6a57610b69611f3b565b5b602091828204019190066101000a81548160ff021916908315150217905550600073ffffffffffffffffffffffffffffffffffffffff1660d08260648110610bb557610bb4611f3b565b5b0160009054906101000a900473ffffffffffffffffffffffffffffffffffffffff1673ffffffffffffffffffffffffffffffffffffffff161415610c3757600060cb600083815260200190815260200160002060020160146101000a81548160ff02191690836002811115610c2d57610c2c611b65565b5b0217905550610ee0565b600060cb600083815260200190815260200160002060020160146101000a81548160ff02191690836002811115610c7157610c70611b65565b5b021790555060d08160648110610c8a57610c89611f3b565b5b0160009054906101000a900473ffffffffffffffffffffffffffffffffffffffff1660cb600083815260200190815260200160002060020160006101000a81548173ffffffffffffffffffffffffffffffffffffffff021916908373ffffffffffffffffffffffffffffffffffffffff16021790555060d08160648110610d1457610d13611f3b565b5b0160009054906101000a900473ffffffffffffffffffffffffffffffffffffffff1660cb600083815260200190815260200160002060040160cb60008481526020019081526020016000206003016000815480929190610d73906121ee565b91905055600a8110610d8857610d87611f3b565b5b0160006101000a81548173ffffffffffffffffffffffffffffffffffffffff021916908373ffffffffffffffffffffffffffffffffffffffff1602179055507fd2aa34a4fdbbc6dff6a3e56f46e0f3ae2a31d7785ff3487aa5c95c642acea5018160d08360648110610dfd57610dfc611f3b565b5b0160009054906101000a900473ffffffffffffffffffffffffffffffffffffffff166101348460648110610e3457610e33611f3b565b5b0154604051610e4593929190612237565b60405180910390a160008160648110610e6157610e60611f3b565b5b0160009054906101000a900473ffffffffffffffffffffffffffffffffffffffff1673ffffffffffffffffffffffffffffffffffffffff166108fc6101348360648110610eb157610eb0611f3b565b5b01549081150290604051600060405180830381858888f19350505050158015610ede573d6000803e3d6000fd5b505b5050565b6101fd8160648110610ef557600080fd5b60209182820401919006915054906101000a900460ff1681565b3373ffffffffffffffffffffffffffffffffffffffff1660cb600084815260200190815260200160002060020160009054906101000a900473ffffffffffffffffffffffffffffffffffffffff1673ffffffffffffffffffffffffffffffffffffffff1614610f7d57600080fd5b600160cb600084815260200190815260200160002060020160146101000a81548160ff02191690836002811115610fb757610fb6611b65565b5b02179055503360008360648110610fd157610fd0611f3b565b5b0160006101000a81548173ffffffffffffffffffffffffffffffffffffffff021916908373ffffffffffffffffffffffffffffffffffffffff160217905550804261101c9190612071565b606583606481106110305761102f611f3b565b5b018190555060006101fd836064811061104c5761104b611f3b565b5b602091828204019190066101000a81548160ff0219169083151502179055505050565b60cb60205280600052604060002060009150905080600001549080600101805461109890611f09565b80601f01602080910402602001604051908101604052809291908181526020018280546110c490611f09565b80156111115780601f106110e657610100808354040283529160200191611111565b820191906000526020600020905b8154815290600101906020018083116110f457829003601f168201915b5050505050908060020160009054906101000a900473ffffffffffffffffffffffffffffffffffffffff16908060020160149054906101000a900460ff16908060030154905085565b600060cf8190555060005b60ca5481101561131b573373ffffffffffffffffffffffffffffffffffffffff1660cb600083815260200190815260200160002060020160009054906101000a900473ffffffffffffffffffffffffffffffffffffffff1673ffffffffffffffffffffffffffffffffffffffff1614156113085760cb600082815260200190815260200160002060cd600060cf6000815480929190611203906121ee565b91905055815260200190815260200160002060008201548160000155600182018160010190805461123390611f09565b61123e9291906117dd565b506002820160009054906101000a900473ffffffffffffffffffffffffffffffffffffffff168160020160006101000a81548173ffffffffffffffffffffffffffffffffffffffff021916908373ffffffffffffffffffffffffffffffffffffffff1602179055506002820160149054906101000a900460ff168160020160146101000a81548160ff021916908360028111156112de576112dd611b65565b5b021790555060038201548160030155600482018160040190600a61130392919061186a565b509050505b8080611313906121ee565b915050611165565b50565b610134816064811061132f57600080fd5b016000915090505481565b60cc60205280600052604060002060009150905080600001549080600101805461136390611f09565b80601f016020809104026020016040519081016040528092919081815260200182805461138f90611f09565b80156113dc5780601f106113b1576101008083540402835291602001916113dc565b820191906000526020600020905b8154815290600101906020018083116113bf57829003601f168201915b5050505050908060020160009054906101000a900473ffffffffffffffffffffffffffffffffffffffff16908060020160149054906101000a900460ff16908060030154905085565b60ca5481565b6114336118a7565b33816000600a811061144857611447611f3b565b5b602002019073ffffffffffffffffffffffffffffffffffffffff16908173ffffffffffffffffffffffffffffffffffffffff168152505060006040518060c0016040528060ca548152602001848152602001836000600a81106114ae576114ad611f3b565b5b602002015173ffffffffffffffffffffffffffffffffffffffff168152602001600060028111156114e2576114e1611b65565b5b8152602001600181526020018381525090508060cb600060ca600081548092919061150c906121ee565b9190505581526020019081526020016000206000820151816000015560208201518160010190805190602001906115449291906118ca565b5060408201518160020160006101000a81548173ffffffffffffffffffffffffffffffffffffffff021916908373ffffffffffffffffffffffffffffffffffffffff16021790555060608201518160020160146101000a81548160ff021916908360028111156115b7576115b6611b65565b5b02179055506080820151816003015560a08201518160040190600a6115dd929190611950565b5090505060ce60003373ffffffffffffffffffffffffffffffffffffffff1673ffffffffffffffffffffffffffffffffffffffff1681526020019081526020016000206000815480929190611631906121ee565b9190505550505050565b60005b60ca548110156117da576001600281111561165c5761165b611b65565b5b60cb600083815260200190815260200160002060020160149054906101000a900460ff16600281111561169257611691611b65565b5b14156117c75760cb600082815260200190815260200160002060cc600060cb60008581526020019081526020016000206000015481526020019081526020016000206000820154816000015560018201816001019080546116f290611f09565b6116fd9291906117dd565b506002820160009054906101000a900473ffffffffffffffffffffffffffffffffffffffff168160020160006101000a81548173ffffffffffffffffffffffffffffffffffffffff021916908373ffffffffffffffffffffffffffffffffffffffff1602179055506002820160149054906101000a900460ff168160020160146101000a81548160ff0219169083600281111561179d5761179c611b65565b5b021790555060038201548160030155600482018160040190600a6117c292919061186a565b509050505b80806117d2906121ee565b91505061163e565b50565b8280546117e990611f09565b90600052602060002090601f01602090048101928261180b5760008555611859565b82601f1061181c5780548555611859565b8280016001018555821561185957600052602060002091601f016020900482015b8281111561185857825482559160010191906001019061183d565b5b50905061186691906119cd565b5090565b82600a8101928215611896579182015b8281111561189557825482559160010191906001019061187a565b5b5090506118a391906119cd565b5090565b604051806101400160405280600a90602082028036833780820191505090505090565b8280546118d690611f09565b90600052602060002090601f0160209004810192826118f8576000855561193f565b82601f1061191157805160ff191683800117855561193f565b8280016001018555821561193f579182015b8281111561193e578251825591602001919060010190611923565b5b50905061194c91906119cd565b5090565b82600a81019282156119bc579160200282015b828111156119bb5782518260006101000a81548173ffffffffffffffffffffffffffffffffffffffff021916908373ffffffffffffffffffffffffffffffffffffffff16021790555091602001919060010190611963565b5b5090506119c991906119cd565b5090565b5b808211156119e65760008160009055506001016119ce565b5090565b6000819050919050565b6119fd816119ea565b82525050565b6000602082019050611a1860008301846119f4565b92915050565b6000604051905090565b600080fd5b600080fd5b611a3b816119ea565b8114611a4657600080fd5b50565b600081359050611a5881611a32565b92915050565b600060208284031215611a7457611a73611a28565b5b6000611a8284828501611a49565b91505092915050565b600081519050919050565b600082825260208201905092915050565b60005b83811015611ac5578082015181840152602081019050611aaa565b83811115611ad4576000848401525b50505050565b6000601f19601f8301169050919050565b6000611af682611a8b565b611b008185611a96565b9350611b10818560208601611aa7565b611b1981611ada565b840191505092915050565b600073ffffffffffffffffffffffffffffffffffffffff82169050919050565b6000611b4f82611b24565b9050919050565b611b5f81611b44565b82525050565b7f4e487b7100000000000000000000000000000000000000000000000000000000600052602160045260246000fd5b60038110611ba557611ba4611b65565b5b50565b6000819050611bb682611b94565b919050565b6000611bc682611ba8565b9050919050565b611bd681611bbb565b82525050565b600060a082019050611bf160008301886119f4565b8181036020830152611c038187611aeb565b9050611c126040830186611b56565b611c1f6060830185611bcd565b611c2c60808301846119f4565b9695505050505050565b6000611c4182611b24565b9050919050565b611c5181611c36565b8114611c5c57600080fd5b50565b600081359050611c6e81611c48565b92915050565b600060208284031215611c8a57611c89611a28565b5b6000611c9884828501611c5f565b91505092915050565b60008115159050919050565b611cb681611ca1565b82525050565b6000602082019050611cd16000830184611cad565b92915050565b611ce081611c36565b82525050565b6000602082019050611cfb6000830184611cd7565b92915050565b6000602082019050611d166000830184611b56565b92915050565b60008060408385031215611d3357611d32611a28565b5b6000611d4185828601611a49565b9250506020611d5285828601611a49565b9150509250929050565b600080fd5b600080fd5b7f4e487b7100000000000000000000000000000000000000000000000000000000600052604160045260246000fd5b611d9e82611ada565b810181811067ffffffffffffffff82111715611dbd57611dbc611d66565b5b80604052505050565b6000611dd0611a1e565b9050611ddc8282611d95565b919050565b600067ffffffffffffffff821115611dfc57611dfb611d66565b5b611e0582611ada565b9050602081019050919050565b82818337600083830152505050565b6000611e34611e2f84611de1565b611dc6565b905082815260208101848484011115611e5057611e4f611d61565b5b611e5b848285611e12565b509392505050565b600082601f830112611e7857611e77611d5c565b5b8135611e88848260208601611e21565b91505092915050565b600060208284031215611ea757611ea6611a28565b5b600082013567ffffffffffffffff811115611ec557611ec4611a2d565b5b611ed184828501611e63565b91505092915050565b7f4e487b7100000000000000000000000000000000000000000000000000000000600052602260045260246000fd5b60006002820490506001821680611f2157607f821691505b60208210811415611f3557611f34611eda565b5b50919050565b7f4e487b7100000000000000000000000000000000000000000000000000000000600052603260045260246000fd5b7f41756374696f6e20616c726561647920656e6465642e00000000000000000000600082015250565b6000611fa0601683611a96565b9150611fab82611f6a565b602082019050919050565b60006020820190508181036000830152611fcf81611f93565b9050919050565b7f546865726520616c7265616479206973206120686967686572206269642e0000600082015250565b600061200c601e83611a96565b915061201782611fd6565b602082019050919050565b6000602082019050818103600083015261203b81611fff565b9050919050565b7f4e487b7100000000000000000000000000000000000000000000000000000000600052601160045260246000fd5b600061207c826119ea565b9150612087836119ea565b9250827fffffffffffffffffffffffffffffffffffffffffffffffffffffffffffffffff038211156120bc576120bb612042565b5b828201905092915050565b60006040820190506120dc6000830185611cd7565b6120e960208301846119f4565b9392505050565b7f41756374696f6e206e6f742079657420656e6465642e00000000000000000000600082015250565b6000612126601683611a96565b9150612131826120f0565b602082019050919050565b6000602082019050818103600083015261215581612119565b9050919050565b7f61756374696f6e456e642068617320616c7265616479206265656e2063616c6c60008201527f65642e0000000000000000000000000000000000000000000000000000000000602082015250565b60006121b8602383611a96565b91506121c38261215c565b604082019050919050565b600060208201905081810360008301526121e7816121ab565b9050919050565b60006121f9826119ea565b91507fffffffffffffffffffffffffffffffffffffffffffffffffffffffffffffffff82141561222c5761222b612042565b5b600182019050919050565b600060608201905061224c60008301866119f4565b6122596020830185611cd7565b61226660408301846119f4565b94935050505056fea26469706673582212207ebd8a6025c680f589a8e653eeed793bb81797d2b4e9b9866dc11ad8c9394c2864736f6c63430008090033",
  "immutableReferences": {},
  "source": "pragma solidity >=0.8.0;\r\n\r\ncontract SimpleAuction {\r\n    // \r\n    address payable[100] public beneficiary;\r\n    address payable public wallet;\r\n    // unix1970-01-01\r\n    // \r\n    uint[100] public auctionEnd;\r\n    uint public nowTime = block.timestamp;\r\n    uint public numofNft = 0;\r\n    \r\n    // constructor(address payable _wallet) public{\r\n    //     wallet = _wallet;\r\n    // }\r\n    \r\n    enum State{ holded,auctioning,auctioned }\r\n    struct Nft{\r\n        uint id;\r\n        string data;\r\n        address payable nowHolder;\r\n        State nowState;\r\n        uint numofHolder;\r\n        address payable[10] historyHolder;\r\n    }\r\n    \r\n    \r\n    mapping (uint => Nft) public allNft;\r\n    mapping (uint => Nft) public autioningNft;\r\n    mapping (uint => Nft) public nowNft;\r\n    mapping (address => uint) public balances;\r\n    \r\n    // mint a token\r\n    // uint numofHolder1;\r\n    // mapping (uint => address payable) historyHolder1;\r\n    \r\n    function mint(string memory _data) payable\r\n    public{\r\n        address payable[10] memory addr1 ;\r\n        addr1[0] = payable(msg.sender);\r\n        Nft memory nft = Nft(\r\n            numofNft,\r\n            _data,\r\n            addr1[0],\r\n            State.holded,\r\n            1,\r\n            addr1\r\n        );\r\n        allNft[numofNft++] = nft;\r\n        // wallet.transfer(msg.value);//the cost to mint a nft\r\n        balances[msg.sender]++;\r\n    }\r\n    \r\n    \r\n    //show the address's all tokens\r\n    uint public numofSelfHold = 0;\r\n    function showTokens() public{\r\n        numofSelfHold = 0;\r\n        for(uint i = 0; i < numofNft; i++)\r\n        {\r\n            if (allNft[i].nowHolder == payable(msg.sender))\r\n            {\r\n                nowNft[numofSelfHold++] = allNft[i];\r\n            }\r\n        }\r\n    }\r\n    \r\n    \r\n    // \r\n    address[100] public highestBidder;\r\n    uint[100] public highestBid;\r\n\r\n    //\r\n    mapping(address => uint)[100] pendingReturns;\r\n    uint numofpendingReturns;\r\n    \r\n\r\n    //  true\r\n    bool[100] public ended;\r\n\r\n    // \r\n    event HighestBidIncreased(address bidder, uint amount);\r\n    event AuctionEnded(uint nftid,address winner, uint amount);\r\n\r\n    //  natspec \r\n    // \r\n    ///  `_beneficiary` \r\n    ///  `_biddingTime` \r\n    function auctionBegin (\r\n        uint auctionNumber,\r\n        uint _biddingTime \r\n        ) public{\r\n        // address payable addr3 = payable(msg.sender);\r\n        // beneficiary = addr3;\r\n        //auctionEnd = block.timestamp + 60\r\n        require(allNft[auctionNumber].nowHolder == msg.sender);\r\n        \r\n        allNft[auctionNumber].nowState = State.auctioning;\r\n        beneficiary[auctionNumber] = payable(msg.sender);\r\n        auctionEnd[auctionNumber] = block.timestamp + _biddingTime;\r\n        ended[auctionNumber] = false;\r\n    }\r\n\r\n    \r\n    function showAuctions() public{//checking all the auctioning tokens\r\n        for(uint i = 0; i < numofNft; i++)\r\n        {\r\n            if (allNft[i].nowState == State.auctioning)\r\n            {\r\n                autioningNft[allNft[i].id] = allNft[i];\r\n            }\r\n        }\r\n    }\r\n    \r\n    function getTime() public{\r\n        nowTime = block.timestamp;\r\n    }\r\n\r\n    /// \r\n    /// \r\n    function bid(uint bidnumber) public payable {\r\n        // \r\n        //  payable \r\n        showAuctions();\r\n        //numofpendingReturns = \r\n        \r\n        // \r\n        require(\r\n            block.timestamp <= auctionEnd[bidnumber],\r\n            \"Auction already ended.\"\r\n        );\r\n        // \r\n        require(\r\n            msg.value > highestBid[bidnumber],\r\n            \"There already is a higher bid.\"\r\n        );\r\n\r\n        if (highestBid[bidnumber] != 0) {\r\n            //  highestBidder.send(highestBid) \r\n            // \r\n            // \r\n            pendingReturns[numofpendingReturns][highestBidder[bidnumber]] += highestBid[bidnumber];\r\n        }\r\n        highestBidder[bidnumber] = msg.sender;\r\n        highestBid[bidnumber] = msg.value;\r\n        emit HighestBidIncreased(msg.sender, msg.value);\r\n    }\r\n\r\n    /// \r\n    function withdraw(uint _numofpendingReturns) public returns (bool) {\r\n        numofpendingReturns = _numofpendingReturns;\r\n        uint amount = pendingReturns[numofpendingReturns][msg.sender];\r\n        if (amount > 0) {\r\n            // \r\n            // \r\n            //  `send` \r\n            pendingReturns[numofpendingReturns][msg.sender] = 0;\r\n\r\n            if (!payable(msg.sender).send(amount)) {\r\n                pendingReturns[numofpendingReturns][msg.sender] = amount;\r\n                return false;\r\n            }\r\n        }\r\n        return true;\r\n    }\r\n\r\n    /// \r\n    function auctionEndding(uint _auctionTokenid) public {\r\n        uint auctionTokenid = _auctionTokenid;\r\n        require(block.timestamp >= auctionEnd[auctionTokenid], \"Auction not yet ended.\");\r\n        require(!ended[auctionTokenid], \"auctionEnd has already been called.\");\r\n        ended[auctionTokenid] = true;\r\n        if (payable(highestBidder[auctionTokenid]) == address(0))\r\n        {\r\n            allNft[auctionTokenid].nowState = State.holded;\r\n        }\r\n        else\r\n        {\r\n        allNft[auctionTokenid].nowState = State.holded;\r\n        allNft[auctionTokenid].nowHolder = payable(highestBidder[auctionTokenid]);\r\n        allNft[auctionTokenid].historyHolder[allNft[auctionTokenid].numofHolder++] = payable(highestBidder[auctionTokenid]);\r\n        emit AuctionEnded(auctionTokenid,highestBidder[auctionTokenid], highestBid[auctionTokenid]);\r\n        beneficiary[auctionTokenid].transfer(highestBid[auctionTokenid]);\r\n        }\r\n        \r\n    }\r\n}\r\n",
  "sourcePath": "C:\\Users\\myp\\Desktop\\truufle project\\starter_kit-master\\nft\\src\\contracts\\SimpleAuction.sol",
  "compiler": {
    "name": "solc",
    "version": "0.8.9+commit.e5eed63a.Emscripten.clang"
  },
  "schemaVersion": "3.4.3",
  "updatedAt": "2021-11-05T07:54:48.707Z",
  "networkType": "ethereum",
  "devdoc": {
    "kind": "dev",
    "methods": {},
    "version": 1
  },
  "userdoc": {
    "kind": "user",
    "methods": {
      "auctionBegin(uint256,uint256)": {
        "notice": " `_beneficiary`   `_biddingTime` "
      },
      "auctionEndding(uint256)": {
        "notice": ""
      },
      "bid(uint256)": {
        "notice": " "
      },
      "withdraw(uint256)": {
        "notice": ""
      }
    },
    "version": 1
  }
}